:02000000E928ED
:1000060083120313FB01FA01F9018030F800F10CA9
:10001600F00C031C17287408F90775080318750FE8
:10002600FA070318FB0A0310F01F1F287408FA07C3
:1000360075080318750FFB07FB0CFA0CF90CF80C86
:10004600031C0A287B08F3007A08F2007908F100FD
:060056007808F00008002C
:0C005C00831203139B011D129D1208006B
:10006800831603138710831212150C309D040800A1
:0C00780083120313950117129712080061
:10008400831603130711831212150C30970408000A
:10009400831603131208013EF000F1010318F10A5C
:1000A40083122208F400F50103200630F2007008E0
:1000B400F4007108F500720803196528F50CF40CB6
:1000C400F513FF3E5E280430F1007408F000710857
:1000D40003197028F00D7010FF3E6A283030700547
:1000E400F3007408F0007508F100F10CF00CF11342
:1000F400F10CF00CF113700895000F30970573089C
:040104009704080054
:10010800831603131208013EF000F1010318F10AE7
:1001180083122208F400F50103200630F20070086B
:10012800F4007108F500720803199F28F50CF40C07
:10013800F513FF3E98280430F1007408F0007108A8
:100148000319AA28F00D7010FF3EA428303070055E
:10015800F3007408F0007508F100F10CF00CF113CD
:10016800F10CF00CF11370089B000F309D0573081B
:040178009D040800DA
:0A017C00043083120313860008000C
:0A0186000530831203138600080001
:0A0190000A308312031386000800F2
:0A019A0002308312031386000800F0
:1001A40083120313121492107C30831692003C20A5
:1001B400121492107C30831692002E204220FF30BD
:0E01C400A2004A203420FF30A2008420080050
:1001D200831603138601D220C3203330FB00BB30C9
:1001E200FC00DF30FD00FD0BF428FC0BF428FB0BB8
:1001F200F42800000000C8203330FB00BB30FC00B4
:10020200DF30FD00FD0B0329FC0B0329FB0B032947
:1002120000000000CD203330FB00BB30FC00DF309B
:10022200FD00FD0B1229FC0B1229FB0B1229000009
:100232000000BE203330FB00BB30FC00DF30FD008D
:10024200FD0B2129FC0B2129FB0B212900000000B9
:04025200ED282A2940
:02400E004A2F37
:00000001FF
